:020000040800F2
:1000000000000120CD350008E5330008E733000883
:10001000E9330008EB330008ED330008000000006E
:10002000000000000000000000000000EF330008A6
:10003000F133000800000000F3330008F533000836
:100040001D3600081D3600081D3600081D36000844
:100050001D3600081D3600081D3600081D36000834
:100060001D3600081D3600081D3600081D36000824
:100070001D3600081D3600081D3600081D36000814
:100080001D3600081D3600081D360008000000005F
:100090000000000000000000000000001D36000805
:1000A0001D3600081D3600081D3600081D360008E4
:1000B0001D3600081D3600081D3600081D360008D4
:1000C0001D3600081D3600081D3600081D360008C4
:1000D0001D3600081D3600081D360008000000000F
:1000E0001D3600081D3600081D36000800000000FF
:1000F0000000000000000000000000001D360008A5
:10010000000000001D3600081D3600081D360008DE
:1001100000000000000000000000000000000000DF
:100120001D3600081D3600081D3600081D36000863
:100130001D36000800000000000000000000000064
:100140000000000000000000000000001D36000854
:100150001D3600081D3600081D3600081D36000833
:100160001D3600081D3600080000000000000000D9
:10017000000000000000000000000000000000007F
:10018000000000001D360008000000000000000014
:040190001D36000810
:1001A00010B5054C237833B9044B13B10448AFF3B1
:1001B00000800123237010BDD40100200000000046
:1001C0000863000808B5034B1BB103490348AFF3AC
:1001D000008008BD00000000D8010020086300086E
:1001E0004FF0FF0C1CEAD0521EBF1CEAD15392EA1A
:1001F0000C0F93EA0C0F6FD01A4480EA010C4002F6
:1002000018BF5FEA41211ED04FF0006343EA50104F
:1002100043EA5111A0FB01310CF00040B1F5000F91
:100220003EBF490041EAD3715B0040EA010062F140
:100230007F02FD2A1DD8B3F1004F40EBC25008BF2A
:1002400020F00100704790F0000F0CF0004C08BF48
:1002500049024CEA502040EA51207F3AC2BFD2F115
:10026000FF0340EAC250704740F400004FF0000323
:10027000013A5DDC12F1190FDCBF00F0004070475D
:10028000C2F10002410021FA02F1C2F1200200FA9B
:1002900002FC5FEA310040F1000053EA4C0308BF62
:1002A00020EADC70704792F0000F00F0004C02BFB3
:1002B000400010F4000F013AF9D040EA0C0093F02E
:1002C000000F01F0004C02BF490011F4000F013B88
:1002D000F9D041EA0C018FE70CEAD15392EA0C0FF6
:1002E00018BF93EA0C0F0AD030F0004C18BF31F061
:1002F000004CD8D180EA010000F00040704790F037
:10030000000F17BF90F0004F084691F0000F91F0DA
:10031000004F14D092EA0C0F01D142020FD193EAA0
:100320000C0F03D14B0218BF084608D180EA010028
:1003300000F0004040F0FE4040F40000704740F004
:10034000FE4040F44000704781F0004102E000BFF1
:1003500083F0004330B54FEA41044FEA430594EA85
:10036000050F08BF90EA020F1FBF54EA000C55EAC0
:10037000020C7FEA645C7FEA655C00F0E2804FEA91
:100380005454D4EB5555B8BF6D420CDD2C4480EA73
:10039000020281EA030382EA000083EA010180EAA3
:1003A000020281EA0303362D88BF30BD11F0004FF1
:1003B0004FEA01314FF4801C4CEA113102D0404227
:1003C00061EB410113F0004F4FEA03334CEA133362
:1003D00002D0524263EB430394EA050F00F0A7807A
:1003E000A4F10104D5F1200E0DDB02FA0EFC22FA75
:1003F00005F2801841F1000103FA0EF2801843FA69
:1004000005F359410EE0A5F120050EF1200E012A59
:1004100003FA0EFC28BF4CF0020C43FA05F3C01897
:1004200051EBE37101F0004507D54FF0000EDCF110
:10043000000C7EEB00006EEB0101B1F5801F1BD3B9
:10044000B1F5001F0CD349085FEA30004FEA3C0CBD
:1004500004F101044FEA445212F5800F80F09A80B3
:10046000BCF1004F08BF5FEA500C50F1000041EBB7
:10047000045141EA050130BD5FEA4C0C404141EBBB
:100480000101013C28BFB1F5801FE9D291F0000FB6
:1004900004BF01460020B1FA81F308BF2033A3F165
:1004A0000B03B3F120020CDA0C3208DD02F1140C5C
:1004B000C2F10C0201FA0CF021FA02F10CE002F197
:1004C0001402D8BFC2F1200C01FA02F120FA0CFC90
:1004D000DCBF41EA0C019040E41AA2BF01EB0451D9
:1004E000294330BD6FEA04041F3C1CDA0C340EDCD7
:1004F00004F11404C4F1200220FA04F001FA02F31A
:1005000040EA030021FA04F345EA030130BDC4F1D7
:100510000C04C4F1200220FA02F001FA04F340EACC
:100520000300294630BD21FA04F0294630BD94F07D
:10053000000F83F4801306BF81F480110134013D64
:100540004EE77FEA645C18BF7FEA655C29D094EAD5
:10055000050F08BF90EA020F05D054EA000C04BF53
:100560001946104630BD91EA030F1EBF002100203E
:1005700030BD5FEA545C05D14000494128BF41F0DD
:10058000004130BD14F580043CBF01F5801130BD41
:1005900001F0004545F0FE4141F470014FF00000CC
:1005A00030BD7FEA645C1ABF194610467FEA655C7D
:1005B0001CBF0B46024650EA013406BF52EA03351F
:1005C00091EA030F41F4002130BD00BF90F0000F0D
:1005D00004BF0021704730B54FF4806404F1320449
:1005E0004FF000054FF0000150E700BF90F0000F02
:1005F00004BF0021704730B54FF4806404F1320429
:1006000010F0004548BF40424FF000013EE700BFF8
:1006100042004FEAE2014FEA31014FEA02701FBF88
:1006200012F07F4393F07F4F81F06051704732F0BA
:100630007F4208BF704793F07F4F04BF41F4002111
:10064000704730B54FF4607401F0004521F000416F
:100650001CE700BF50EA010208BF704730B54FF0F9
:1006600000050AE050EA010208BF704730B511F0FA
:10067000004502D5404261EB41014FF4806404F132
:1006800032045FEA915C3FF4D8AE4FF003025FEAB8
:10069000DC0C18BF03325FEADC0C18BF033202EB3C
:1006A000DC02C2F1200300FA03FC20FA02F001FA96
:1006B00003FE40EA0E0021FA02F11444BDE600BF39
:1006C00070B54FF0FF0C4CF4E06C1CEA11541DBFE8
:1006D0001CEA135594EA0C0F95EA0C0F00F0DEF8B3
:1006E0002C4481EA030621EA4C5123EA4C5350EA98
:1006F000013518BF52EA033541F4801143F48013E9
:1007000038D0A0FB02CE4FF00005E1FB02E506F079
:100710000042E0FB03E54FF00006E1FB03569CF0CE
:10072000000F18BF4EF0010EA4F1FF04B6F5007FD4
:1007300064F5407404D25FEA4E0E6D4146EB060646
:1007400042EAC62141EA55514FEAC52040EA5E50CF
:100750004FEACE2EB4F1FD0C88BFBCF5E06F1ED879
:10076000BEF1004F08BF5FEA500E50F1000041EBB0
:10077000045170BD06F0004646EA010140EA02005D
:1007800081EA0301B4EB5C04C2BFD4EB0C0541EA7F
:10079000045170BD41F480114FF0000E013C00F394
:1007A000AB8014F1360FDEBF002001F0004170BDB8
:1007B000C4F10004203C35DA0C341BDC04F11404D1
:1007C000C4F1200500FA05F320FA04F001FA05F25D
:1007D00040EA020001F0004221F0004110EBD3702A
:1007E00021FA04F642EB06015EEA430E08BF20EA56
:1007F000D37070BDC4F10C04C4F1200500FA04F3F9
:1008000020FA05F001FA04F240EA020001F000418A
:1008100010EBD37041F100015EEA430E08BF20EAFD
:10082000D37070BDC4F1200500FA05F24EEA020E45
:1008300020FA04F301FA05F243EA020321FA04F074
:1008400001F0004121FA04F220EA020000EBD3702B
:100850005EEA430E08BF20EAD37070BD94F0000F2B
:100860000FD101F00046400041EB010111F4801F5F
:1008700008BF013CF7D041EA060195F0000F18BF10
:10088000704703F00046520043EB030313F4801F4C
:1008900008BF013DF7D043EA0603704794EA0C0F06
:1008A0000CEA135518BF95EA0C0F0CD050EA41061C
:1008B00018BF52EA4306D1D181EA030101F0004199
:1008C0004FF0000070BD50EA410606BF10461946C1
:1008D00052EA430619D094EA0C0F02D150EA0136CD
:1008E00013D195EA0C0F05D152EA03361CBF10460E
:1008F00019460AD181EA030101F0004141F0FE41AD
:1009000041F470014FF0000070BD41F0FE4141F430
:10091000780170BD70B54FF0FF0C4CF4E06C1CEA30
:1009200011541DBF1CEA135594EA0C0F95EA0C0FE5
:1009300000F0A7F8A4EB050481EA030E52EA0335A0
:100940004FEA013100F088804FEA03334FF08055C1
:1009500045EA131343EA12634FEA022245EA1115EE
:1009600045EA10654FEA00260EF000419D4208BF9F
:10097000964244F1FD0404F5407402D25B084FEA4C
:100980003202B61A65EB03055B084FEA32024FF4F8
:1009900080104FF4002CB6EB020E75EB030E22BF55
:1009A000B61A754640EA0C005B084FEA3202B6EB15
:1009B000020E75EB030E22BFB61A754640EA5C00C4
:1009C0005B084FEA3202B6EB020E75EB030E22BF54
:1009D000B61A754640EA9C005B084FEA3202B6EB55
:1009E000020E75EB030E22BFB61A754640EADC0014
:1009F00055EA060E18D04FEA051545EA16754FEA76
:100A000006164FEAC30343EA52734FEAC2025FEA93
:100A10001C1CC0D111F4801F0BD141EA00014FF022
:100A200000004FF0004CB6E711F4801F04BF0143F3
:100A30000020B4F1FD0C88BFBCF5E06F3FF6AFAE0F
:100A4000B5EB030C04BFB6EB020C5FEA500C50F19F
:100A5000000041EB045170BD0EF0004E4EEA113122
:100A600014EB5C04C2BFD4EB0C0541EA045170BD29
:100A700041F480114FF0000E013C90E645EA060E6D
:100A80008DE60CEA135594EA0C0F08BF95EA0C0F9B
:100A90003FF43BAF94EA0C0F0AD150EA01347FF4E3
:100AA00034AF95EA0C0F7FF425AF104619462CE7BA
:100AB00095EA0C0F06D152EA03353FF4FDAE10461D
:100AC000194622E750EA410618BF52EA43067FF46E
:100AD000C5AE50EA41047FF40DAF52EA43057FF4FE
:100AE000EBAE12E74FEA4102B2F1E04324BFB3F5A7
:100AF000001CDCF1FE5C0DD901F0004C4FEAC00295
:100B00004CEA5070B2F1004F40EB830008BF20F078
:100B10000100704711F0804F21D113F13872BCBF32
:100B200001F00040704741F480114FEA5252C2F187
:100B30001802C2F1200C10FA0CF320FA02F018BFD0
:100B400040F001004FEAC1234FEAD32303FA0CFC23
:100B500040EA0C0023FA02F34FEA4303CCE77FEAB2
:100B6000625307D150EA01331EBF4FF0FE4040F4FC
:100B70004000704701F0004040F0FE4040F40000AB
:100B8000704700BF80F0004002E000BF81F00041EC
:100B900042001FBF5FEA410392EA030F7FEA226C23
:100BA0007FEA236C6AD04FEA1262D2EB1363C1BFB3
:100BB000D218414048404140B8BF5B42192B88BF22
:100BC000704710F0004F40F4000020F07F4018BF45
:100BD000404211F0004F41F4000121F07F4118BF65
:100BE000494292EA030F3FD0A2F1010241FA03FC0D
:100BF00010EB0C00C3F1200301FA03F100F00043F5
:100C000002D5494260EB4000B0F5000F13D3B0F1BC
:100C1000807F06D340084FEA310102F10102FE2A2B
:100C200051D2B1F1004F40EBC25008BF20F001009B
:100C300040EA03007047490040EB0000013A28BF3A
:100C4000B0F5000FEDD2B0FA80FCACF1080CB2EBBD
:100C50000C0200FA0CF0AABF00EBC250524218433B
:100C6000BCBFD0401843704792F0000F81F40001E0
:100C700006BF80F400000132013BB5E74FEA4103B3
:100C80007FEA226C18BF7FEA236C21D092EA030F1F
:100C900004D092F0000F08BF0846704790EA010F99
:100CA0001CBF0020704712F07F4F04D1400028BFC6
:100CB00040F00040704712F100723CBF00F50000A8
:100CC000704700F0004343F0FE4040F400007047DE
:100CD0007FEA226216BF08467FEA2363014642028A
:100CE00006BF5FEA412390EA010F40F4800070479D
:100CF0004FF0000304E000BF10F0004348BF404243
:100D00005FEA000C08BF704743F0964301464FF07E
:100D100000001CE050EA010208BF70474FF00003DA
:100D20000AE000BF50EA010208BF704711F000431B
:100D300002D5404261EB41015FEA010C02BF8446EB
:100D40000146002043F0B64308BFA3F18053A3F54A
:100D50000003BCFA8CF2083AA3EBC25310DB01FA91
:100D600002FC634400FA02FCC2F12002BCF1004F15
:100D700020FA02F243EB020008BF20F001007047A6
:100D800002F1200201FA02FCC2F1200250EA4C00FA
:100D900021FA02F243EB020008BF20EADC70704740
:100DA00053B94AB9002908BF00281CBF4FF0FF31D2
:100DB0004FF0FF3000F06AB9ADF1080C6DE904CED8
:100DC00000F006F8DDF804E0DDE9022304B0704726
:100DD0002DE9F047089D0C46002B4ED194468C45DA
:100DE0008646B2FA82F262D94AB1C2F1200391403A
:100DF00020FA03F30CFA02FC194300FA02FE4FEA50
:100E00001C471FFA8CF6B1FBF7F44FEA1E4307FBB1
:100E1000141143EA014304FB06F199420AD91CEB81
:100E2000030304F1FF3080F01281994240F20F81F8
:100E3000023C6344591A1FFA8EF3B1FBF7F007FB2B
:100E4000101143EA014300FB06F69E420AD91CEB4F
:100E5000030300F1FF3180F0FC809E4240F2F980F4
:100E6000634402389B1B40EA044000211DB1D3407B
:100E70000022C5E90032BDE8F0878B4205D90DB1EB
:100E8000C5E9000100210846F5E7B3FA83F100291E
:100E900046D1A34202D39042C0F0F080861A64EBA0
:100EA00003030120002DE6D0C5E90063E3E7002A33
:100EB00040F09080A1EB0C044FEA1C481FFA8CF71D
:100EC0000121B4FBF8F64FEA1E4308FB164443EA3F
:100ED000044307FB06F0984208D91CEB030306F114
:100EE000FF3402D2984200F2CD8026461C1A1FFA27
:100EF0008EF3B4FBF8F008FB104443EA044300FB14
:100F000007F79F4208D91CEB030300F1FF3402D21C
:100F10009F4200F2B0802046DB1B40EA0640A5E776
:100F2000C1F120068B4022FA06F71F4320FA06FC87
:100F300004FA01F343EA0C03F44000FA01F8380C18
:100F40004FEA1349B4FBF0FE1FFA87FC00FB1E4476
:100F500049EA04440EFB0CF9A14502FA01F20AD950
:100F60003C190EF1FF3A80F08480A14540F2818067
:100F7000AEF1020E3C44A4EB09041FFA83F9B4FB62
:100F8000F0F300FB134449EA044403FB0CFCA445C2
:100F900007D93C1903F1FF3067D2A44565D9023B5C
:100FA0003C4443EA0E40A0FB0293A4EB0C049C4299
:100FB000CE469C4651D34ED055B1B8EB0E0364EBF0
:100FC0000C0404FA06F6CB401E43CC40C5E900648D
:100FD000002150E7C2F1200320FA03F10CFA02FCD1
:100FE00024FA03F394400C434FEA1C4800FA02FE33
:100FF0001FFA8CF7B3FBF8F008FB1031230C43EA1F
:10100000014300FB07F1994208D91CEB030300F1EF
:10101000FF362CD299422AD9023863445B1AA4B213
:10102000B3FBF8F108FB113344EA034401FB07F377
:10103000A34208D91CEB040401F1FF3613D2A342EA
:1010400011D902396444E41A41EA004139E70446FF
:10105000F0E6084606E7C845AED2B9EB020E63EBF0
:10106000070C0138A8E73146EDE7034699E730461B
:10107000D4E7D6467FE7634402384DE70646234669
:1010800008460FE7023E634430E700BF704700BFE9
:1010900001F0FF01102A2BDB10F0070F08D010F829
:1010A000013B013A8B422DD010F0070F42B3F6D12D
:1010B000F0B441EA012141EA014122F007047FF046
:1010C00000070023F0E80256083C85EA010586EA9D
:1010D000010685FA47F5A3FA87F586FA47F6A5FAD9
:1010E00087F68EB9EED1F0BC01F0FF0102F00702E5
:1010F00032B110F8013B013A83EA010313B1F8D190
:101100000020704701387047002D06BF3546033870
:10111000073815F0010F07D1013015F4807F02BFA9
:10112000013015F4C03F0130F0BC0138704700BFFA
:10113000034613F8012B002AFBD1181A0138704717
:101140004FF0FF3C06E000BF4FF0010C02E000BF93
:101150004FF0010C4DF804CD4FEA410C7FEA6C5C76
:101160004FEA430C18BF7FEA6C5C1BD001B050EA19
:10117000410C0CBF52EA430C91EA030F02BF90EA04
:10118000020F0020704710F1000F91EA030F58BFC3
:10119000994208BF90422CBFD8176FEAE37040F025
:1011A000010070474FEA410C7FEA6C5C02D150EAC3
:1011B000013C07D14FEA430C7FEA6C5CD6D152EA7E
:1011C000033CD3D05DF8040B704700BF8446104643
:1011D00062468C461946634600E000BF01B5FFF742
:1011E000B7FF002848BF10F1000F01BD4DF808ED12
:1011F000FFF7F4FF0CBF012000205DF808FB00BFE3
:101200004DF808EDFFF7EAFF34BF012000205DF83C
:1012100008FB00BF4DF808EDFFF7E0FF94BF012089
:1012200000205DF808FB00BF4DF808EDFFF7CEFF8A
:1012300094BF012000205DF808FB00BF4DF808EDC9
:10124000FFF7C4FF34BF012000205DF808FB00BF9A
:101250004FEA410C7FEA6C5C02D150EA013C0AD1B2
:101260004FEA430C7FEA6C5C02D152EA033C02D1A4
:101270004FF0000070474FF0010070474FEA410205
:1012800012F5001215D211D56FF47873B3EB6252D8
:1012900012D94FEAC12343F0004343EA505311F0FF
:1012A000004F23FA02F018BF404270474FF0000091
:1012B000704750EA013005D111F0004008BF6FF0CF
:1012C000004070474FF00000704700BF80B400AF8F
:1012D00000BFBD4680BC704780B584B000AF786069
:1012E0000023FB737B68002B01D1012333E07B6873
:1012F0001B6C002B09D1786802F09CF87B680022F7
:101300005A647B68002283F83C207B681B6C03F0E6
:101310001003002B18D17B681B6C23F4885323F037
:10132000020343F002027B681A64786800F0B6FAA0
:101330007B6800225A647B681B6C23F0030343F034
:1013400001027B681A6401E00123FB737B680022C1
:1013500083F83C20FB7B18461037BD4680BD00005B
:1013600080B485B000AF78600023BB607B6893F8E1
:101370003C30012B01D1022397E07B68012283F8E6
:101380003C207B681B689B6803F00103012B18D08D
:101390007B681B689A687B681B6842F001029A6050
:1013A000444B1B68444AA2FB03239A0C13465B0080
:1013B0001344BB6002E0BB68013BBB60BB68002B11
:1013C000F9D17B681B689B6803F00103012B5FD197
:1013D0007B681B6C23F4E06323F0010343F4807209
:1013E0007B681A647B681B685B6803F48063002B6E
:1013F00007D07B681B6C23F4405343F480527B6816
:101400001A647B681B6C03F48053B3F5805F06D1CC
:101410007B685B6C23F006027B685A6402E07B68A1
:1014200000225A647B68002283F83C20234BFB6037
:101430007B681B686FF022021A60FB685B6803F030
:101440001F03002B0FD17B681B689B6803F0405380
:10145000002B29D17B681B689A687B681B6842F067
:1014600080429A6020E07B681B68154A93421BD13A
:101470007B681B689B6803F04053002B14D17B688A
:101480001B689A687B681B6842F080429A600BE098
:101490007B681B6C43F010027B681A647B685B6C92
:1014A00043F001027B685A64002318461437BD4696
:1014B00080BC70470000002083DE1B4300230140F6
:1014C0000020014080B483B000AF78607B6893F85F
:1014D0003C30012B01D1022321E07B68012283F8FB
:1014E0003C207B681B689A687B681B6822F00102BD
:1014F0009A607B681B689B6803F00103002B09D18D
:101500007B681B6C23F4885323F0010343F0010232
:101510007B681A647B68002283F83C20002318460D
:101520000C37BD4680BC704780B584B000AF786092
:1015300039600023FB607B681B689B6803F4806351
:10154000B3F5806F13D17B681B689B6803F48073CD
:10155000B3F5807F0BD17B681B6C43F020027B6866
:101560001A647B68002283F83C20012363E001F0C9
:10157000B1F9F86021E03B68B3F1FF3F1DD03B6853
:10158000002B07D001F0A6F90246FB68D31A3A688F
:101590009A4212D27B681B681B6803F00203022B7D
:1015A0000BD07B681B6C43F004027B681A647B6879
:1015B000002283F83C2003233DE07B681B681B6806
:1015C00003F00203022BD6D17B681B686FF0120276
:1015D0001A607B681B6C43F400727B681A647B683A
:1015E0001B689B6803F04053002B23D17B681B7E54
:1015F000002B1FD17B681B68DB6A03F47003002B90
:1016000006D07B681B689B6803F48063002B11D1B4
:101610007B681B6C23F480727B681A647B681B6C8C
:1016200003F48053002B05D17B681B6C43F001024F
:101630007B681A64002318461037BD4680BD80B40D
:1016400083B000AF78607B681B68DB6C18460C3792
:10165000BD4680BC7047000080B485B000AF7860A4
:1016600039600023BB607B6893F83C30012B01D1CB
:10167000022305E17B68012283F83C203B681B685C
:10168000092B25D97B681B68D9683B681B689BB20E
:101690001A4613465B0013441E3B072202FA03F36B
:1016A000DA437B681B680A40DA607B681B68D9688C
:1016B0003B689A683B681B689BB2184603465B0010
:1016C00003441E3B9A407B681B680A43DA6022E0B1
:1016D0007B681B6819693B681B689BB21A461346F6
:1016E0005B001344072202FA03F3DA437B681B68AA
:1016F0000A401A617B681B6819693B689A683B68F5
:101700001B689BB2184603465B0003449A407B6803
:101710001B680A431A613B685B68062B24D87B6808
:101720001B68596B3B685A6813469B001344053B82
:101730001F2202FA03F3DA437B681B680A405A63EC
:101740007B681B68596B3B681B689BB218463B68FB
:101750005A6813469B001344053B00FA03F27B686A
:101760001B680A435A634CE03B685B680C2B24D827
:101770007B681B68196B3B685A6813469B001344CF
:10178000233B1F2202FA03F3DA437B681B680A40FB
:101790001A637B681B68196B3B681B689BB2184611
:1017A0003B685A6813469B001344233B00FA03F23C
:1017B0007B681B680A431A6323E07B681B68D96A4D
:1017C0003B685A6813469B001344413B1F2202FAB0
:1017D00003F3DA437B681B680A40DA627B681B68A4
:1017E000D96A3B681B689BB218463B685A68134627
:1017F0009B001344413B00FA03F27B681B680A43D9
:10180000DA62224BFB607B681B68214A934209D154
:101810003B681B68122B05D1FB685B6843F48002B0
:10182000FB685A607B681B68194A934223D13B6866
:101830001B68102B03D03B681B68112B1BD1FB6866
:101840005B6843F40002FB685A603B681B68102B1E
:1018500011D1104B1B68104AA2FB03239A0C1346AC
:101860009B0013445B00BB6002E0BB68013BBB60B4
:10187000BB68002BF9D17B68002283F83C20002351
:1018800018461437BD4680BC704700BF0023014096
:10189000002001400000002083DE1B4380B485B09F
:1018A00000AF7860794BFB60FB685B6823F44032E3
:1018B000FB685A60FB685A687B685B681A43FB6880
:1018C0005A607B681B685A687B681B6822F48072C8
:1018D0005A607B681B6859687B681B691A027B68C1
:1018E0001B680A435A607B681B685A687B681B68E0
:1018F00022F040725A607B681B6859687B689A685E
:101900007B681B680A435A607B681B689A687B681F
:101910001B6822F400629A607B681B6899687B6888
:10192000DA687B681B680A439A607B689B6A584A3E
:10193000934222D07B681B689A687B681B6822F000
:1019400070629A607B681B6899687B689A6A7B689A
:101950001B680A439A607B681B689A687B681B68EF
:1019600022F040529A607B681B6899687B68DA6A4B
:101970007B681B680A439A600FE07B681B689A6863
:101980007B681B6822F070629A607B681B689A68AB
:101990007B681B6822F040529A607B681B689A68DB
:1019A0007B681B6822F002029A607B681B6899685A
:1019B0007B681B7E5A007B681B680A439A607B68C1
:1019C00093F82030002B1BD07B681B685A687B681B
:1019D0001B6842F400625A607B681B685A687B6827
:1019E0001B6822F460425A607B681B6859687B68F8
:1019F0005B6A013B5A037B681B680A435A6007E035
:101A00007B681B685A687B681B6822F400625A6016
:101A10007B681B68DA6A7B681B6822F47002DA62F2
:101A20007B681B68D96A7B68DB69013B1A057B68A8
:101A30001B680A43DA627B681B689A687B681B68CC
:101A400022F400729A607B681B6899687B6893F83F
:101A500030305A027B681B680A439A607B681B68B7
:101A60009A687B681B6822F480629A607B681B68B6
:101A700099687B685B699A027B681B680A439A6075
:101A800000BF1437BD4680BC704700BF0023014033
:101A90000100000F80B586B000AF78607B68002B36
:101AA00001D1012367E27B681B6803F00103002B6F
:101AB00075D0884B9B6803F00C03042B0CD0854B2E
:101AC0009B6803F00C03082B12D1824B5B6803F474
:101AD0008003B3F5800F0BD17E4B1B6803F40033FA
:101AE000002B5BD07B685B68002B57D1012342E25F
:101AF0007B685B68B3F5803F06D1764B1B68754AFF
:101B000043F4803313601DE07B685B68B3F5A02F5E
:101B10000CD1704B1B686F4A43F4802313606D4BEC
:101B20001B686C4A43F4803313600BE0694B1B68FD
:101B3000684A23F480331360664B1B68654A23F4BC
:101B4000802313607B685B68002B13D000F0C2FE1B
:101B5000386108E000F0BEFE02463B69D31A642BF0
:101B600001D9032307E25B4B1B6803F40033002B0E
:101B7000F0D014E000F0AEFE386108E000F0AAFEFC
:101B800002463B69D31A642B01D90323F3E1514B7D
:101B90001B6803F40033002BF0D100E000BF7B682A
:101BA0001B6803F00203002B63D04A4B9B6803F0D1
:101BB0000C03002B0BD0474B9B6803F00C03082B46
:101BC0001CD1444B5B6803F48003002B16D1414BBE
:101BD0001B6803F00203002B05D07B68DB68012B38
:101BE00001D00123C7E13B4B1B6823F0F8027B685F
:101BF0001B69DB00374913430B603AE07B68DB6805
:101C0000002B20D0344B01221A6000F063FE3861B3
:101C100008E000F05FFE02463B69D31A022B01D9AF
:101C20000323A8E12B4B1B6803F00203002BF0D029
:101C3000284B1B6823F0F8027B681B69DB002549F1
:101C400013430B6015E0244B00221A6000F042FEA3
:101C5000386108E000F03EFE02463B69D31A022BD1
:101C600001D9032387E11B4B1B6803F00203002B00
:101C7000F0D17B681B6803F00803002B36D07B682B
:101C80005B69002B16D0154B01221A6000F022FE72
:101C9000386108E000F01EFE02463B69D31A022BB1
:101CA00001D9032367E10B4B5B6F03F00203002BA9
:101CB000F0D01BE0094B00221A6000F00BFE3861E7
:101CC0000EE000F007FE02463B69D31A022B07D94B
:101CD000032350E10038024000004742800E474293
:101CE000884B5B6F03F00203002BEAD17B681B6813
:101CF00003F00403002B00F097800023FB75814B59
:101D00001B6C03F08053002B0FD10023BB607D4B75
:101D10001B6C7C4A43F0805313647A4B1B6C03F0BA
:101D20008053BB60BB680123FB75774B1B6803F4D2
:101D30008073002B18D1744B1B68734A43F4807373
:101D4000136000F0C7FD386108E000F0C3FD0246F3
:101D50003B69D31A022B01D903230CE16A4B1B68A0
:101D600003F48073002BF0D07B689B68012B06D1B5
:101D7000644B1B6F634A43F0010313671CE07B68ED
:101D80009B68052B0CD15F4B1B6F5E4A43F004032D
:101D900013675C4B1B6F5B4A43F0010313670BE057
:101DA000584B1B6F574A23F001031367554B1B6FAA
:101DB000544A23F0040313677B689B68002B15D0FB
:101DC00000F088FD38610AE000F084FD02463B69BE
:101DD000D31A41F28832934201D90323CBE0494B15
:101DE0001B6F03F00203002BEED014E000F072FD35
:101DF00038610AE000F06EFD02463B69D31A41F2F9
:101E00008832934201D90323B5E03E4B1B6F03F0A8
:101E10000203002BEED1FB7D012B05D1394B1B6C4E
:101E2000384A23F0805313647B689B69002B00F0D1
:101E3000A180344B9B6803F00C03082B5CD07B68BB
:101E40009B69022B41D1314B00221A6000F042FD08
:101E5000386108E000F03EFD02463B69D31A022BD0
:101E600001D9032387E0274B1B6803F00073002B85
:101E7000F0D17B68DA697B681B6A1A437B685B6A0E
:101E80009B011A437B689B6A5B08013B1B041A4356
:101E90007B68DB6A1B061B4913434B601B4B01220B
:101EA0001A6000F017FD386108E000F013FD0246EB
:101EB0003B69D31A022B01D903235CE0114B1B6849
:101EC00003F00073002BF0D054E0104B00221A6096
:101ED00000F000FD386108E000F0FCFC02463B69C0
:101EE000D31A022B01D9032345E0064B1B6803F0EC
:101EF0000073002BF0D13DE07B689B69012B07D17B
:101F0000012338E000380240007000406000474282
:101F10001B4B5B68FB607B689B69012B28D0FB68CF
:101F200003F480027B68DB699A4221D1FB6803F0ED
:101F30003F027B681B6A9A421AD1FA6847F6C0735F
:101F400013407A68526A9201934211D1FB6803F4FC
:101F500040327B689B6A5B08013B1B049A4207D1B5
:101F6000FB6803F070627B68DB6A1B069A4201D053
:101F7000012300E0002318461837BD4680BD00BF8E
:101F80000038024080B584B000AF786039607B686B
:101F9000002B01D10123CCE0684B1B6803F0070341
:101FA0003A689A420CD9654B3A68D2B21A70634BC0
:101FB0001B6803F007033A689A4201D00123B8E096
:101FC0007B681B6803F00203002B20D07B681B6832
:101FD00003F00403002B05D0594B9B68584A43F487
:101FE000E05393607B681B6803F00803002B05D067
:101FF000534B9B68524A43F460439360504B9B6839
:1020000023F0F0027B689B684D4913438B607B682B
:102010001B6803F00103002B44D07B685B68012B35
:1020200007D1474B1B6803F40033002B19D1012360
:102030007FE07B685B68022B03D07B685B68032BC7
:1020400007D13F4B1B6803F00073002B09D101231C
:102050006FE03B4B1B6803F00203002B01D101230F
:1020600067E0374B9B6823F003027B685B68344969
:1020700013438B6000F02EFCF8600AE000F02AFCAD
:102080000246FB68D31A41F28832934201D90323F6
:102090004FE02B4B9B6803F00C027B685B689B0056
:1020A0009A42EBD1254B1B6803F007033A689A422A
:1020B0000CD2224B3A68D2B21A70204B1B6803F044
:1020C00007033A689A4201D0012332E07B681B681B
:1020D00003F00403002B08D0194B9B6823F4E05253
:1020E0007B68DB68164913438B607B681B6803F0D1
:1020F0000803002B09D0124B9B6823F460427B68D5
:102100001B69DB000E4913438B6000F021F8024687
:102110000B4B9B681B0903F00F030A49CB5C22FAA7
:1021200003F3094A1360094B1B68184600F090FB43
:10213000002318461037BD4680BD00BF003C02405A
:102140000038024020630008000000200400002046
:102150002DE9B04F90B000AF00237B630023FB63F9
:1021600000233B630023BB63594B9B6803F00C03C4
:10217000082B0DD0082B00F2A280002B02D0042BDC
:1021800003D09CE0534BBB639CE0534BBB6399E093
:102190004F4B5B6803F03F037B634D4B5B6803F47D
:1021A0008003002B27D04A4B5B689B0900223B62CF
:1021B0007A623B6AC3F308000021474B03FB01F23C
:1021C000002300FB03F31344434AA0FB0221F962FE
:1021D000BA62FA6A1344FB627B6B0022BB61FA614C
:1021E000D7E90623D7E90A01FEF7DAFD02460B46D6
:1021F0001346FB6355E0364B5B689B0900223B614D
:102200007A613B69C3F3080A4FF0000B52465B4604
:102210004FF000004FF00001590141EAD261500136
:1022200002460B46B2EB0A0863EB0B094FF00002C3
:102230004FF000034FEA891343EA98634FEA88128C
:10224000B2EB080463EB09054FF000024FF0000306
:10225000EB0043EA5473E20014461D4614EB0A03F4
:102260003B6045EB0B037B604FF000024FF0000337
:10227000D7E9004529468B0220462946044643EA11
:10228000945301468A02104619467B6B0022BB60BC
:10229000FA60D7E90223FEF783FD02460B46134698
:1022A000FB630B4B5B681B0C03F0030301335B0008
:1022B0003B63FA6B3B6BB2FBF3F3BB6302E0054B92
:1022C000BB6300BFBB6B18464037BD46BDE8B08F4F
:1022D000003802400024F40040787D0180B400AF53
:1022E000024B1B681846BD4680BC704700000020AA
:1022F00080B500AFFFF7F2FF0246054B9B689B0AD3
:1023000003F007030349CB5C22FA03F3184680BDB0
:10231000003802403063000880B500AFFFF7DEFFF1
:102320000246054B9B685B0B03F007030349CB5C3C
:1023300022FA03F3184680BD0038024030630008DB
:1023400080B489B000AF7860396000237B610023DE
:102350003B610023BB610023FB6159E10122FB6962
:1023600002FA03F37B613B681B687A6913403B61A7
:102370003A697B699A4240F048813B685B6803F0A8
:102380000303012B05D03B685B6803F00303022BBA
:1023900030D17B689B68BB61FB695B00032202FA5A
:1023A00003F3DB43BA691340BB613B68DA68FB693E
:1023B0005B0002FA03F3BA691343BB617B68BA6935
:1023C0009A607B685B68BB610122FB6902FA03F3D8
:1023D000DB43BA691340BB613B685B681B0903F0D0
:1023E0000102FB6902FA03F3BA691343BB617B681C
:1023F000BA695A603B685B6803F00303032B17D08C
:102400007B68DB68BB61FB695B00032202FA03F3B4
:10241000DB43BA691340BB613B689A68FB695B00A8
:1024200002FA03F3BA691343BB617B68BA69DA60E5
:102430003B685B6803F00303022B23D1FB69DA08D6
:102440007B68083253F82230BB61FB6903F0070355
:102450009B000F2202FA03F3DB43BA691340BB610E
:102460003B681A69FB6903F007039B0002FA03F358
:10247000BA691343BB61FB69DA087B680832B96942
:1024800043F822107B681B68BB61FB695B00032279
:1024900002FA03F3DB43BA691340BB613B685B6834
:1024A00003F00302FB695B0002FA03F3BA6913430A
:1024B000BB617B68BA691A603B685B6803F44033B0
:1024C000002B00F0A2800023FB60564B5B6C554A4A
:1024D00043F480435364534B5B6C03F48043FB60D1
:1024E000FB68514AFB699B08023352F82330BB61F9
:1024F000FB6903F003039B000F2202FA03F3DB43A3
:10250000BA691340BB617B68484A934219D07B6823
:10251000474A934213D07B68464A93420DD07B686A
:10252000454A934207D07B68444A934201D1042331
:1025300008E0072306E0032304E0022302E001236E
:1025400000E00023FA6902F0030292009340BA69A6
:102550001343BB613449FB699B080233BA6941F8F4
:102560002320374B9B68BB613B69DB43BA6913404F
:10257000BB613B685B6803F48013002B03D0BA692E
:102580003B691343BB612E4ABB6993602C4BDB68EC
:10259000BB613B69DB43BA691340BB613B685B6865
:1025A00003F40013002B03D0BA693B691343BB61EA
:1025B000234ABB69D360224B5B68BB613B69DB4349
:1025C000BA691340BB613B685B6803F40033002BBE
:1025D00003D0BA693B691343BB61194ABB695360B5
:1025E000174B1B68BB613B69DB43BA691340BB6196
:1025F0003B685B6803F48033002B03D0BA693B6906
:102600001343BB610E4ABB691360FB690133FB6175
:10261000FB690F2B7FF6A2AE00BF00BF2437BD467B
:1026200080BC704700380240003801400000024082
:102630000004024000080240000C0240001002406A
:10264000003C014080B485B000AF78607B6803F047
:102650000703FB600C4BDB68BB60BA684FF6FF03F7
:102660001340BB60FB681A02BB68134343F0BF63AF
:1026700043F40033BB60044ABB68D36000BF143727
:10268000BD4680BC704700BF00ED00E080B400AFE5
:10269000044BDB681B0A03F007031846BD4680BCE9
:1026A000704700BF00ED00E080B483B000AF034688
:1026B0003960FB7197F90730002B0ADB3B68DAB20F
:1026C0000C4997F907301201D2B20B4483F800236A
:1026D0000AE03B68DAB20849FB7903F00F03043BD8
:1026E0001201D2B20B441A7600BF0C37BD4680BC33
:1026F000704700BF00E100E000ED00E080B489B069
:1027000000AFF860B9607A60FB6803F00703FB6113
:10271000FB69C3F10703042B28BF0423BB61FB69DA
:102720000433062B02D9FB69033B00E000237B61E5
:102730004FF0FF32BB6902FA03F3DA43BB681A4079
:102740007B699A404FF0FF317B6901FA03F3D9436B
:102750007B680B40134318462437BD4680BC704746
:1027600080B582B000AF78607B68013BB3F1807FB9
:1027700001D301230FE00A4A7B68013B53600F211C
:102780004FF0FF30FFF790FF054B00229A60044B9B
:1027900007221A60002318460837BD4680BD00BFD7
:1027A00010E000E080B582B000AF78607868FFF795
:1027B00049FF00BF0837BD4680BD80B586B000AF79
:1027C0000346B9607A60FB7300237B61FFF75EFF0D
:1027D00078617A68B9687869FFF790FF024697F9DF
:1027E0000F3011461846FFF75FFF00BF1837BD4690
:1027F00080BD80B582B000AF78607868FFF7B0FF29
:10280000034618460837BD4680BD000080B500AFBE
:102810000E4B1B680D4A43F4007313600B4B1B688F
:102820000A4A43F480631360084B1B68074A43F469
:10283000807313600320FFF7B5FF0F2000F008F846
:1028400000F0DCFD0023184680BD00BF003C0240C4
:1028500080B582B000AF7860124B1A68124B1B78BB
:1028600019464FF47A73B3FBF1F3B2FBF3F3184656
:10287000FFF7BFFF0346002B01D001230EE07B686A
:102880000F2B0AD8002279684FF0FF30FFF795FF31
:10289000064A7B681360002300E0012318460837CE
:1028A000BD4680BD0000002008000020040000207C
:1028B00080B400AF054B1B781A46054B1B681344C8
:1028C000034A136000BFBD4680BC7047080000206B
:1028D000F001002080B400AF024B1B681846BD46D3
:1028E00080BC7047F001002080B584B000AF7860F4
:1028F000FFF7F0FFB8607B68FB60FB68B3F1FF3F58
:1029000005D00A4B1B781A46FB681344FB6000BFD6
:10291000FFF7E0FF0246BB68D31AFA689A42F7D87D
:1029200000BF00BF1037BD4680BD00BF08000020BB
:1029300080B582B000AF78607B68002B01D10123A5
:1029400042E07B6893F84130DBB2002B06D17B6814
:10295000002283F84020786800F0A0FD7B682422E4
:1029600083F841207B681B68DA687B681B6822F467
:102970000052DA60786800F071F97B681B681A69A8
:102980007B681B6822F490421A617B681B685A6955
:102990007B681B6822F02A025A617B681B68DA6830
:1029A0007B681B6842F40052DA607B6800225A643C
:1029B0007B68202283F841207B68202283F8422014
:1029C0007B6800225A63002318460837BD4680BD45
:1029D00080B58AB002AFF860B9603B601346FB80F7
:1029E00000237B61FB6893F84130DBB2202B75D16B
:1029F000BB68002B02D0FB88002B01D101236EE0C5
:102A0000FB6800225A64FB68212283F84120FFF70B
:102A100061FF7861FB68FA889A84FB68FA88DA8437
:102A2000FB689B68B3F5805F08D1FB681B69002BCE
:102A300004D10023FB61BB68BB6103E0BB68FB61A1
:102A40000023BB612EE03B6800937B69002280215C
:102A5000F86800F048F80346002B05D0FB682022F8
:102A600083F8412003233AE0FB69002B0BD1BB69BB
:102A70001B881A46FB681B68C2F308025A60BB69D0
:102A80000233BB6107E0FB691A78FB681B685A6078
:102A9000FB690133FB61FB68DB8C9BB2013B9AB2A3
:102AA000FB68DA84FB68DB8C9BB2002BCBD13B68E4
:102AB00000937B6900224021F86800F014F8034677
:102AC000002B05D0FB68202283F84120032306E079
:102AD000FB68202283F84120002300E002231846EF
:102AE0002037BD4680BD80B586B000AFF860B960C4
:102AF0003B601346FB713BE03B6AB3F1FF3F37D0CD
:102B0000FFF7E8FE02463B68D31A3A6A9A4202D3BC
:102B10003B6A002B01D103233AE0FB681B68DB68AA
:102B200003F00403002B23D0BB68802B20D0BB68AC
:102B3000402B1DD0FB681B681B6803F00803082BA3
:102B400016D100237B61FB681B681B687B61FB68F7
:102B50001B685B687B617B69F86800F01DF8FB68A7
:102B600008225A64FB68002283F8402001230FE00A
:102B7000FB681B681A68BB681340BA689A420CBFAE
:102B800001230023DBB21A46FB799A42B4D000231A
:102B900018461837BD4680BD80B495B000AF786048
:102BA0007B681B680C337B637B6B53E8003F3B63A4
:102BB0003B6B23F49073FB647B681B680C33FA6CEB
:102BC0003A64FB63F96B3A6C41E80023BB63BB6B6F
:102BD000002BE5D17B681B6814333B623B6A53E8EA
:102BE000003FFB61FB6923F00103BB647B681B684A
:102BF0001433BA6CFA62BB62B96AFA6A41E800231C
:102C00007B627B6A002BE5D17B681B6B012B19D1A2
:102C10007B681B680C33FB60FB6853E8003FBB60BC
:102C2000BB6823F010037B647B681B680C337A6CF1
:102C3000BA617B617969BA6941E800233B613B690C
:102C4000002BE5D17B68202283F842207B6800229C
:102C50001A6300BF5437BD4680BC70472DE9B04FA2
:102C6000C0B000AFC7F8F400D7F8F4301B681B6998
:102C700023F44050D7F8F430D968D7F8F4301A6804
:102C800040EA01031361D7F8F4309A68D7F8F430BA
:102C90001B691A43D7F8F4305B691A43D7F8F4304C
:102CA000DB691343C7F8F830D7F8F4301B68DB68EA
:102CB00023F4164121F00C01D7F8F4301A68D7F844
:102CC000F8300B43D360D7F8F4301B685B6923F40A
:102CD0004070D7F8F4309969D7F8F4301A6840EAB0
:102CE00001035361D7F8F4301A68914B9A4205D02A
:102CF000D7F8F4301A688F4B9A4204D1FFF70CFBD7
:102D0000C7F8FC0003E0FFF7F3FAC7F8FC00D7F8B8
:102D1000F430DB69B3F5004F40F01081D7F8FC3098
:102D20000022C7F8E830C7F8EC20D7E93A45224638
:102D30002B469118B9655B41FB65D7E91623204600
:102D40002946044612EB04080C4643EB04094FF0F5
:102D500000024FF000034FEAC90343EA58734FEAF9
:102D6000C80290469946034618EB0303C7F8E030C3
:102D70000B4649EB0303C7F8E430D7F8F4305B683F
:102D80000022C7F8D830C7F8DC20D7E936120B4646
:102D9000DB183B65134642EB03037B65D7E914233D
:102DA000D7E93801FDF7FCFF02460B46624BA3FB57
:102DB00002235B091C01D7F8FC300022C7F8D03091
:102DC000C7F8D420D7E9348942464B469118B964F4
:102DD0005B41FB64D7E91223454612EB050A4046E6
:102DE00049460D4643EB050B4FF000024FF0000340
:102DF0004FEACB0343EA5A734FEACA0292469B4614
:102E000003461AEB0303C7F8C8300B464BEB03032A
:102E1000C7F8CC30D7F8F4305B680022C7F8C03070
:102E2000C7F8C420D7E930120B46DB183B641346C1
:102E300042EB03037B64D7E91023D7E93201FDF7A6
:102E4000AFFF02460B4611463B4BA3FB01235B0938
:102E5000642202FB03F3CB1ADB0003F13202364B90
:102E6000A3FB02235B095B0003F4F8731C44D7F84F
:102E7000FC300022C7F8B830C7F8BC20D7E92E894B
:102E800042464B469118B9635B41FB63D7E90E2379
:102E900041465118396349464B417B634FF000026C
:102EA0004FF00003D7E90CAB5946CB00554643EA37
:102EB00055735146CA0010461946034642469B18B0
:102EC000C7F8B0304B460A4642EB0303C7F8B430AC
:102ED000D7F8F4305B680022C7F8A830C7F8AC20F8
:102EE000D7E92A120B46DB18BB62134642EB0303F9
:102EF000FB62D7E90A23D7E92C01FDF751FF02460F
:102F00000B460D4BA3FB02135B09642101FB03F38A
:102F1000D31ADB003233084AA2FB03235B0903F018
:102F20000702D7F8F4301B6822449A600AE100BF18
:102F300000100140001401401F85EB51D7F8FC3010
:102F40000022C7F8A030C7F8A420D7E92889424654
:102F50004B46911839625B417B62D7E908234146B1
:102F60005418CC4643EB0C054FF000024FF0000321
:102F7000EB0043EA5473E20014461D4640464946BE
:102F80000346E318C7F898300B4645EB0303C7F830
:102F90009C30D7F8F4305B680022C7F89030C7F84F
:102FA00094204FF000024FF00003D7E92445294652
:102FB0008B0020462946044643EA947301468A0062
:102FC000D7E92601FDF7ECFE02460B46604BA3FB5A
:102FD00002235B091C01D7F8FC300022C7F88830B7
:102FE000C7F88C20D7E9228942464B469118B9612F
:102FF0005B41FB61D7E906234146511839614946D7
:103000004B417B614FF000024FF00003D7E904AB66
:103010005946CB00554643EA55735146CA001046FF
:103020001946034642469B18C7F880304B460A466D
:1030300042EB0303C7F88430D7F8F4305B68002212
:10304000BB67FA674FF000024FF00003D7E91E8913
:1030500049468B00454643EA957341468A00D7E9C5
:103060002001FDF79DFE02460B461146384BA3FB9F
:1030700001235B09642202FB03F3CB1A1B013233E9
:10308000334AA2FB03235B0903F0F0031C44D7F887
:10309000FC3000223B677A67D7E91C8942464B46E1
:1030A0009118B9605B41FB60D7E902234146511892
:1030B000396049464B417B604FF000024FF00003FE
:1030C000D7E900AB5946CB00554643EA5573514604
:1030D000CA0010461946034642469B18BB664B463B
:1030E0000A4642EB0303FB66D7F8F4305B68002224
:1030F0003B667A664FF000024FF00003D7E918896B
:1031000049468B00454643EA957341468A00D7E914
:103110001A01FDF745FE02460B460D4BA3FB0213B9
:103120005B09642101FB03F3D31A1B013233084A04
:10313000A2FB03235B0903F00F02D7F8F4301B68EE
:1031400022449A6000BF07F58077BD46BDE8B08F86
:103150001F85EB5182B000230193064B1A6B42F09E
:1031600001021A631B6B03F001030193019B02B080
:10317000704700BF0038024072B6FEE708B50A4843
:103180000A4B03604FF41653436000238360C3600F
:1031900003610C2242618361C361FFF7C9FB00B97F
:1031A00008BDFFF7E9FF00BFFC010020001001404F
:1031B00000B585B0002300930193029303931F4849
:1031C0001F4A02604360836001220261037680F837
:1031D0002030C3621B498162C3600321C16180F852
:1031E00030304261FEF778F8F8B9052300930123E7
:1031F00001930423029369461048FEF72DFAB0B9F3
:10320000062300930223019369460C48FEF724FA33
:1032100078B9072300930323019369460748FEF713
:103220001BFA40B905B05DF804FBFFF7A5FFFFF7F7
:10323000A3FFFFF7A1FFFFF79FFF00BF440200209D
:10324000002001400100000F00B595B030220021A0
:1032500008A800F094FF00230393049305930693BA
:1032600007930193194A116C41F080511164126C5B
:1032700002F080520192019A029315490A6822F4E1
:10328000404242F400420A600A6802F4404202925C
:10329000029A0222089201220B9210220C920E93A3
:1032A00008A8FEF7F7FB68B90F23039300210491E8
:1032B00005910691079103A8FEF764FE20B915B0A9
:1032C0005DF804FBFFF758FFFFF756FF0038024098
:1032D000007000400000000000B58FB0FFF796FAC4
:1032E000FFF7B2FFFFF736FFFFF748FFFFF760FF7A
:1032F0003349344800F0BAF9334D2A4603213348A4
:1033000000F08DF92A88324901A800F0D5FE2D4E33
:1033100001A9304600F0AAF92888FDF7E9FCFDF77D
:1033200077F923A3D3E90023FDF7CAF922A3D3E950
:103330000023FDF7EFFAFDF7D5FB0446254B186097
:103340006888FDF7D5FCFDF763F919A3D3E90023DD
:10335000FDF7B6F918A3D3E90023FDF7DBFAFDF773
:10336000C1FB1D4D28604FF08141FCF739FF2860FB
:103370002046FDF74DF902460B46184901A800F01A
:103380009BFE01A9304600F071F92868FDF740F96D
:1033900002460B46124901A800F08EFE01A93046F4
:1033A00000F064F94FF47A70FFF79EFAA4E700BFCB
:1033B0006666666666660A400000000000FEAF4072
:1033C00038630008FC010020900200204402002025
:1033D00048630008F8010020F40100205C63000845
:1033E00070630008FEE7FEE7FEE7FEE7FEE77047D2
:1033F0007047704708B5FFF75BFA08BD82B000213F
:1034000000910B4B5A6C42F480425A645A6C02F49D
:1034100080420092009A01911A6C42F080521A6424
:103420001B6C03F080530193019B02B0704700BFF7
:103430000038024000B589B000230393049305933C
:1034400006930793026803F1804303F590339A4291
:1034500002D009B05DF804FB0021019103F58C3323
:103460005A6C42F480725A645A6C02F4807201926F
:10347000019A02911A6B42F001021A631B6B03F06E
:1034800001030293029BE02303930323049303A904
:103490000148FEF755FFDCE70000024000B589B0A7
:1034A000002303930493059306930793026803F1A3
:1034B000804303F588339A4202D009B05DF804FBDB
:1034C0000021019103F594335A6C42F010025A64C2
:1034D0005A6C02F010020192019A02911A6B42F0AA
:1034E00001021A631B6B03F001030293029B4FF46A
:1034F000C0630393022304930323069307230793D4
:1035000003A90248FEF71CFFD7E700BF00000240F6
:1035100010B503460C4A0D490D48006840B10C48EF
:1035200000680344521A934206D8094A136010BD3A
:103530000748084C0460F2E700F074FE0C230360B7
:103540004FF0FF30F3E700BF00000120000400004F
:103550008C020020E80300200120704708B500F02D
:1035600061FE162303604FF0FF3008BD08B54FF031
:10357000FF31FFF7F3FFFEE770B50C461646002556
:1035800006E0AFF30080214601F8010B01350C463F
:10359000B542F6DB304670BD70B50C4616460025C8
:1035A00004E014F8010BAFF300800135B542F8DBFD
:1035B000304670BD4FF0FF3070474FF400534B6002
:1035C000002070470120704700207047DFF834D09A
:1035D000FDF77CFE0C480D490D4A002302E0D4584B
:1035E000C4500433C4188C42F9D30A4A0A4C00234D
:1035F00001E013600432A242FBD300F019FEFFF792
:103600006BFE70470000012000000020D401002064
:1036100008670008D4010020E4030020FEE7F8B5A5
:1036200005460E461746FDF79BFE00240AE064217E
:103630002846FDF779FF2846FEF701F827F8140021
:103640000134E4B2B442F2D32846FDF73BFFF8BDA3
:1036500000B583B08DF807104FF6FF7301220DF10E
:103660000701FFF7B5F903B05DF804FB38B505466F
:103670000C4603E001342846FFF7EAFF21780029D1
:10368000F8D138BD2DE9F04788B0002B1D4614460F
:10369000BCBF03F100431446129A109EDDF84CA003
:1036A000B6BF1D4600232D231370149B23F0200862
:1036B000B8F1460F05D0B8F1450F00D1013602230D
:1036C00000E0032307AA049206AACDE902A2CDE9ED
:1036D000003622462B4600F05BFEB8F1470F074646
:1036E00019D1119BDB070ED500EB06090022002340
:1036F00020462946FDF77AFD08B1CDF81C9030220E
:10370000079B4B451ED3079B159ADB1B384613605E
:1037100008B0BDE8F087B8F1460F00EB0609E5D127
:103720000378302B0AD10022002320462946FDF7DA
:103730005DFD18B9C6F10106CAF80060DAF800307C
:103740009944D3E7591C07911A70D9E7F7B50029B6
:10375000BABF49422D232B2309290270437029DD6A
:103760000DF107031D460A271A46B1FBF7F607FBC2
:103770001614303402F8014C0C46632C03F1FF336D
:103780003146F1DC3031941E03F8011C411C234604
:10379000AB420AD30DF109039B1AAC4288BF002348
:1037A00002330344181A03B0F0BD13F8016B01F89B
:1037B000016FEDE7302330318370C170031DF1E7F5
:1037C0002DE9F04F91B00C46DDF8688016461F4693
:1037D000054600F0DDFC036808931846FDF7A8FCD9
:1037E00000230E93D8F800300990073323F0070325
:1037F00003F1080294F818A0D4F800B0C8F800202B
:10380000D3E9008929F000430B93CDF82880C4E95F
:103810001289DDE90A019D4B4FF0FF32FDF718FDDB
:1038200070BBDDE90A01994B4FF0FF32FDF7F2FC66
:1038300030BB0022002340464946FDF7E1FC10B1B1
:103840002D2384F84330924A924BBAF1470F94BF2C
:1038500090469846032323612BF0040323604FF026
:103860000009009733460FAA2146284600F0D4F9F4
:10387000013040F08F804FF0FF3011B0BDE8F08F85
:1038800042464B4640464946FDF7E2FC40B14B46B6
:10389000002BBCBF2D2384F843307F4A7F4BD4E7F5
:1038A00063685A1C0AF0DF013FD1062363604BF4C2
:1038B00080630022236006920EAACDE904A20DAA1D
:1038C00003920DF13302CDE9013263680093424661
:1038D0004B4628460A91FFF7D5FE0A9947298046AC
:1038E0000D9928D1C81C02DB6368994240DDAAF11A
:1038F000020A5FFA8AFA0139524604F150000D912A
:10390000FFF724FF0E9A1318012A8146236102DC77
:103910002268D20701D5013323619DF83330002B93
:103920009FD02D2384F843309BE74729BFD1002B3C
:10393000BDD10123BAE7BAF1650FDCD9BAF1660F40
:1039400018D1002963680BDD216113B92268D00703
:1039500002D501330B442361A1654FF00009DCE778
:1039600013B92268D20701D50233F4E70123F2E745
:103970004FF0670A0E9B994205DB23682161D80747
:10398000EAD54B1CE7E70029D4BFC1F102020122AE
:103990001344E0E723685A0507D4236942463146B9
:1039A0002846B84701302BD165E7BAF1650F40F2E0
:1039B000DD80D4E9120100220023FDF717FC002866
:1039C00033D0374A012331462846B84701303FF407
:1039D00052AFDDE90D38434502DB2368D8070FD528
:1039E000DDE9082331462846B84701303FF443AFAC
:1039F0004FF0000908F1FF3804F11A0AC84509DC44
:103A000023689B0700F10381E0680F9B9842B8BFD1
:103A1000184632E70123524631462846B84701305E
:103A20003FF429AF09F10109E8E70D9B002B39DCD0
:103A30001B4A012331462846B84701303FF41BAFEB
:103A4000DDE90D3959EA030302D12368D907D7D537
:103A5000DDE9082331462846B84701303FF40BAF73
:103A60004FF0000A04F11A0B0D9B5B42534501DC39
:103A70004B4693E701235A4631462846B847013062
:103A80003FF4F9AE0AF1010AEEE700BFFFFFEF7F56
:103A900083630008876300088B6300088F63000856
:103AA00093630008A36DDDF838A05345A8BF5346C3
:103AB000002B994636DC4FF0000B29EAE97904F136
:103AC0001A02A36D0A93A3EB09035B4531DC0D9B3E
:103AD0009A453ADC2368DA0737D40D9BAAEB030931
:103AE0000A9BAAEB03039945A8BF9946B9F1000FB9
:103AF00033DC4FF0000829EAE97904F11A0B0D9B39
:103B0000AAEB0303A3EB090343457FF779AF012336
:103B10005A4631462846B84701303FF4ACAE08F16A
:103B20000108ECE7424631462846B8470130C2D189
:103B3000A1E60123314628460A92B84701303FF4F6
:103B40009AAE0A9A0BF1010BBBE7DDE90823314677
:103B50002846B8470130C0D18DE60A9A4B46424408
:103B600031462846B8470130C3D184E6DDF838A095
:103B7000BAF1010F01DCDB0736D50123424631469D
:103B80002846B84701303FF476AEDDE908233146D8
:103B90002846B84701303FF46EAED4E91201002246
:103BA00000230AF1FF3AFDF721FBC0B9534608F1A3
:103BB000010231462846B84701300CD15BE60123AB
:103BC0005A4631462846B84701303FF454AE08F112
:103BD0000108D045F3DB4B4604F15002DFE64FF01D
:103BE000000804F11A0BF4E701234246E1E7012340
:103BF0004A4631462846B84701303FF43CAE08F10A
:103C00000108E3680F995B1A4345F0DCFCE64FF0CE
:103C1000000804F11909F4E72DE9F0471646984623
:103C20008A680B69DDF820909342B8BF1346336071
:103C300091F8432007460C460AB1013333602368EC
:103C4000990642BF336802333360256815F00605D4
:103C500006D104F1190AE36832689B1AAB4226DCEC
:103C600094F843302268003B18BF012392062BD4FE
:103C700004F1430241463846C84701301ED023684C
:103C8000226903F00603042B02BFE5683368ED1ACE
:103C9000A3680CBF25EAE57500259342C4BF9B1AB3
:103CA000ED1800261A34B5421AD1002008E001238D
:103CB000524641463846C847013003D14FF0FF30E5
:103CC000BDE8F0870135C6E7E1185A1C302081F8BD
:103CD0004300224494F8451082F843100233C7E7AA
:103CE0000123224641463846C8470130E6D0013616
:103CF000D9E700002DE9FF470F7E0C9E782F9146F3
:103D000080460C469A4601F1430207D8622F0AD832
:103D1000002F00F0D280582F00F0B98004F1420645
:103D200084F842703AE0A7F16303152BF6D801A19D
:103D300051F823F08D3D0008A13D00081D3D00080D
:103D40001D3D00081D3D00081D3D0008A13D000867
:103D50001D3D00081D3D00081D3D00081D3D0008DB
:103D6000A13E0008CB3D00085B3E00081D3D000859
:103D70001D3D0008C33E00081D3D0008CB3D000866
:103D80001D3D00081D3D0008633E000833681A1DF4
:103D90001B68326004F1420684F8423001239DE042
:103DA00033682068191D3160060601D51D6803E0DF
:103DB0004506FBD5B3F90050002D03DA2D236D42E3
:103DC00084F8433059480A2311E021683368080613
:103DD00053F8045B02D4490648BFADB26F2F534875
:103DE000336014BF0A230823002184F84310666857
:103DF000A660002EA2BF216821F0040121600DB948
:103E0000002E4BD01646B5FBF3F103FB1157C75DEF
:103E100006F8017D2F46BB420D46F4D9082B0BD185
:103E20002368DF0708D5236961689942DEBF302324
:103E300006F8013C06F1FF36921B2261CDF800A086
:103E40004B4603AA21464046FFF7E6FE01304AD121
:103E50004FF0FF3004B0BDE8F087236843F0200343
:103E600023603348782784F84570236831681F063B
:103E700051F8045B02D45F0648BFADB23160D90788
:103E800044BF43F0200323601DB11023ACE7274853
:103E9000E9E7236823F020032360F6E71646BDE731
:103EA000336825686169181D30602E061B6801D5CE
:103EB000196002E06806FBD51980002323611646CD
:103EC000BCE733681A1D32601E6862680021304604
:103ED000FDF7DEF808B1801B606063682361002392
:103EE00084F84330AAE72369324649464046D04722
:103EF0000130ADD023689B0713D4E068039B984240
:103F0000B8BF1846A6E70123324649464046D04787
:103F100001309DD00135E36803995B1AAB42F2DCB6
:103F2000EBE7002504F11906F5E700BF95630008EB
:103F3000A6630008002310B50446C0E90033C0E9B9
:103F40000433836081814366C281836119460822FC
:103F50005C3000F014F90D4B63620D4BA3620D4B06
:103F6000E3620D4B23630D4B24629C4206D003F1A8
:103F70006802944202D0D0339C4205D104F158002B
:103F8000BDE8104000F078B910BD00BFF94000084E
:103F90001B410008534100087741000898020020A7
:103FA000024A0349034800F069B800BF0C00002032
:103FB000D15B00081C00002041680C4B994210B5F1
:103FC000044601D001F004FEA168094B994202D0D9
:103FD000204601F0FDFDE168064B994204D02046E1
:103FE000BDE8104001F0F4BD10BD00BF98020020F4
:103FF000000300206803002010B50B4B0B4C0C4A4B
:104000001A60204600220421FFF794FF04F16800A3
:1040100001220921FFF78EFF04F1D0000222BDE842
:1040200010401221FFF786BFD00300209802002025
:10403000A13F0008014800F020B900BFD9030020CB
:10404000014800F01BB900BFD903002010B5044699
:10405000FFF7F0FF236A1BB1BDE81040FFF7F0BF88
:10406000044B2362044B1B68002BF5D1FFF7C4FF00
:10407000F2E700BFB93F0008D00300202DE9F84364
:104080000746884614460026D4E90195B9F101098E
:1040900005D52468002CF7D13046BDE8F883AB89FC
:1040A000012B07D9B5F90E30013303D02946384624
:1040B000C04706436835E9E70EB400B59CB01DABB8
:1040C000029006906FF00041094807910491094958
:1040D00053F8042B05910068019302A901F0FCFB41
:1040E000029B00221A701CB05DF804EB03B070470D
:1040F000180000200802FFFF10B50C46B1F90E10A1
:1041000000F06CF80028ABBF636DA3891B1823F483
:104110008053ACBF6365A38110BD2DE9F0411F46FC
:104120008B89DB0505460C46164605D5B1F90E1000
:104130000223002200F040F8A389B4F90E1023F402
:104140008053A38132463B462846BDE8F04100F04B
:1041500057B810B50C46B1F90E1000F02DF8431CFD
:10416000A38915BF606523F4805343F48053A38172
:1041700018BFA38110BDB1F90E1000F00DB80244B4
:104180000346934200D1704703F8011BF9E7000092
:10419000004870475801002038B5064D00230446FA
:1041A00008462B60FFF706FA431C02D12B6803B1C7
:1041B000236038BDD403002038B5074D04460846B7
:1041C000114600222A601A46FFF7FEF9431C02D16D
:1041D0002B6803B1236038BDD403002038B5074DE8
:1041E00004460846114600222A601A46FFF7C4F921
:1041F000431C02D12B6803B1236038BDD4030020D7
:1042000038B5074D04460846114600222A601A4672
:10421000FFF7C2F9431C02D12B6803B1236038BDFC
:10422000D4030020014B1868704700BF180000201D
:1042300070B50D4D0D4C641BA4100026A64209D18B
:104240000B4D0C4C02F060F8641BA4100026A64233
:1042500005D170BD55F8043B98470136EEE755F897
:10426000043B98470136F2E7006700080067000842
:1042700000670008046700087047704770472DE921
:10428000F74F03690C69A34207467EDB013C01F14D
:104290001408A30000F11405009305EB84030193B7
:1042A00058F8243055F8242001339A4208EB840949
:1042B000B2FBF3F62ED34FF0000AC446AE46D34607
:1042C0005CF8043B98B206FB00A0020C1B0C06FB3A
:1042D0000323DEF8002080B292B2121A5A44DEF8AC
:1042E00000004FEA134A9BB2C3EB224303EB104397
:1042F00092B242EA0342E1454EF8042B4FEA234BC7
:10430000DED2009BEB582BB9019B043B9D421A4621
:104310002FD33C61384601F07DF9002825DB294682
:10432000002058F8042BD1F800C01FFA82FE1FFAB3
:104330008CF3A3EB0E030344120CC2EB234202EBFB
:104340001C429BB243EA0243C14541F8043B4FEA99
:104350002240E6D255F8242005EB840322B9043B21
:104360009D421A460BD33C610136304603B0BDE88E
:10437000F08F1268043B002ACBD1013CC6E71268DB
:10438000043B002AEFD1013CEAE70020EEE7000001
:104390002DE9F04FC76997B014461D46CDE9024597
:1043A000239E83467FB9102000F004FE0246CBF81E
:1043B0001C0020B9A84BEF21A84801F069FCC0E916
:1043C00001770760C760DBF81C30196859B15A687B
:1043D0004A60012393408B60584600F0E1FEDBF811
:1043E0001C3000221A602B1EB9BF23F00043039338
:1043F00000233360DDF80C80994BBCBF0122326092
:1044000033EA080312D1229A42F20F731360C8F301
:104410001303234300F05185249BDFF848A2002BAF
:1044200000F053850AF1030300F04DBDDDE90223DE
:10443000CDE90C23DDE90C0100220023FCF7D6FEB8
:10444000074658B1229A01231360249B13B1249A82
:10445000854B1360DFF814A200F037BD14AB019355
:1044600015AB00935846DDE90C2301F081F9C8F340
:104470000A568146002E76D00D9B1297C3F3130384
:10448000DDE90C0143F07F5343F44013A6F2FF36FD
:1044900019460022764BFBF75BFF69A3D3E90023A3
:1044A000FCF70EF968A3D3E90023FBF753FF04469A
:1044B00030460D46FCF79AF865A3D3E90023FCF7D4
:1044C000FFF802460B4620462946FBF743FF044609
:1044D0000D46FCF7D3FE002207460023204629465E
:1044E000FCF78EFE40B13846FCF780F822462B469A
:1044F000FCF77CFE00B9013F162F52D85D4B03EB51
:10450000C703D3E90023DDE90C01FCF779FE00289D
:1045100049D0013F00230F93149B9B1B5A1E44BF9D
:10452000C3F101080023099254BF4FF0000809931A
:10453000002F3ADB099B0E973B44099300230A9313
:10454000209B092B65D8052BC4BF043B2093209BDF
:10455000A3F10203CCBF00240124032B64D8DFE8BD
:1045600003F02B383656DDE914631E4406F232435D
:10457000202BC1BFC3F1400308FA03F806F212432F
:1045800024FA03F3D6BFC3F1200348EA030004FA78
:1045900003F0FCF71BF80122A1F1F873013E12921F
:1045A00076E70123B7E70F90B6E77B420A93002333
:1045B000A8EB07080E93C3E700230B93219B002B66
:1045C00035DC0123CDE907331A4621920BE00123A4
:1045D000F3E700230B93219BFB1808930133012B76
:1045E0000793B8BF0123DBF81C000021042202F16D
:1045F00014059D421FD94160584600F091FD824646
:1046000000283BD11C4B024640F2AF11D4E60123F7
:10461000E0E70124002320930B944FF0FF33CDE912
:10462000073300221223D0E701230B93F5E7219BE8
:10463000CDE90733D7E701315200D8E7AFF3008067
:1046400061436F63A787D23FB3C8608B288AC63F98
:10465000FB799F501344D33FC4630008DB63000819
:104660000000F07FC06300089463000893630008B3
:104670000000F83FD864000833640008DBF81C3001
:104680001860079B0E2B00F2A480002C00F0A18084
:10469000002F33DD864B07F00F0203EBC203D3E993
:1046A0000034F805CDE904344FEA271416D5814BC0
:1046B000DDE90C01D3E90823FCF72CF9CDE902016F
:1046C00004F00F0403267B4D54B9DDE90423DDE932
:1046D0000201FCF71FF9CDE9020128E00226F2E70A
:1046E000E10708D5DDE90401D5E90023FBF7E8FF80
:1046F000CDE90401013664100835E5E700F0D28009
:104700007C426B4B6B4D04F00F0203EBC203D3E909
:104710000023DDE90C01FBF7D3FFCDE902012411F1
:1047200000230226002C40F0B280002BD3D10F9B37
:10473000DDE90245002B00F0B7805F4B00222046E8
:104740002946FCF75DFD002800F0AE80079B002B9A
:1047500000F0AA80089B002B37DD7B1E04932046C7
:10476000564B00222946FBF7ABFFCDE90201089C1E
:1047700001363046FBF73AFFDDE90223FBF7A0FFE5
:104780004F4B0022FBF7E6FD0546A1F15076002CC9
:1047900040F09A80DDE902014A4B0022FBF7D8FD88
:1047A00002460B46CDE902232A463346FCF746FD76
:1047B000002840F08E82DDE902012A4606F100431E
:1047C000FCF71EFD002840F02781DDE90C34CDE91F
:1047D0000234159B002BC0F263810E2F00F3608121
:1047E000334B03EBC703D3E90034CDE90434219BF9
:1047F000002B03DA079B002B40F30081DDE9024523
:104800005646DDE9042320462946FCF783F8FCF7E9
:1048100035FD8046FBF7EAFEDDE90423FBF750FF98
:1048200002460B462046294608F13004FBF790FD6E
:1048300006F8014B079DA6EB0A04A54202460B466B
:1048400040F01681FBF786FDDDE9042304460D46A2
:10485000FCF7F4FC002840F0F880DDE90423204652
:104860002946FCF7C3FC18B118F0010F40F0ED80A9
:104870004946584600F094FC00233370229B0137D0
:104880001F60249B002B00F020831E601DE3E207C5
:1048900005D5D5E90023FBF713FF0136012364108A
:1048A00008353FE7022642E7079C049761E700BF0F
:1048B000D8640008B06400080000F03F0000244005
:1048C00000001C4000001440704B0B9903EBC40324
:1048D00053E902235444002945D06D490020FCF7D8
:1048E00019F833462A46FBF733FDCDE91001564649
:1048F000DDE90201FCF7C2FC0546FBF777FE024644
:104900000B46DDE90201FBF723FD303502460B467D
:10491000CDE9022306F8015BDDE91023FCF770FC0A
:10492000002863D1DDE902235A490020FBF710FD7E
:10493000DDE91023FCF764FC002840F08780A642E4
:104940003FF443AFDDE91001534B0022FBF7B8FE03
:10495000514BCDE910010022DDE90201FBF7B0FE69
:10496000CDE90201C4E731462846FBF7A9FECDE9AF
:10497000100113945646DDE90201FCF77FFC054661
:10498000FBF734FE02460B46DDE90201FBF7E0FCD3
:10499000303506F8015B02460B46A642CDE90223FC
:1049A0004FF0000224D13A4BDDE91001FBF7D2FCB5
:1049B00002460B46DDE90201FCF740FC002845D128
:1049C000DDE9102332490020FBF7C2FC02460B460A
:1049D000DDE90201FCF714FC00283FF4F6AE139E5B
:1049E000731E139316F8013C302BF8D0049F3FE759
:1049F000294BFBF765FECDE90201BCE70CD1274B43
:104A00000022DDE90401FBF75BFEDDE90223FCF790
:104A10000BFC002800F05B8100242546219BDB4332
:104A20000493564600272146584600F0B9FB002D56
:104A3000DCD02FB1AF4203D03946584600F0B0FB6E
:104A40002946584600F0ACFBD0E7049733461E4693
:104A500013F8012D392A07D19A45F8D1049A013269
:104A6000049230228AF800201A7801321A70BDE7C9
:104A7000094B0022FBF724FE0022002304460D46CA
:104A8000FCF7B4FB00283FF4BCAEF1E6D8640008A4
:104A90000000E03F0000F03F000024400000144010
:104AA0000B9A002A00F0DB80209A012A00F3BF80D5
:104AB000129A002A00F0B78003F233430A9C46465C
:104AC000099A01211A4458469844099200F01CFCA6
:104AD00005465EB1099B002B08DDB342099AA8BFC9
:104AE0003346A8EB0308F61AD31A09930A9BF3B1CD
:104AF0000B9B002B00F0B7808CB12946224658460C
:104B000000F0C2FC4A4601460546584600F012FC39
:104B100049460490584600F043FB049B99460A9B83
:104B20001A1B04D04946584600F0AEFC81460121CC
:104B3000584600F0E9FB0E9B0446002B00F0C981AB
:104B40001A460146584600F09FFC209B012B044664
:104B500000F38F80029B002B40F08780039BC3F300
:104B60001303002B40F08380039B23F000431B0DB5
:104B70001B052BB1099B0133099308F1010801239F
:104B80000A930E9B002B00F0AA81236904EB830398
:104B9000186900F06DFBC0F12000099B184410F06B
:104BA0001F0071D0C0F12003042B65DD099BC0F10B
:104BB0001C000344804406440993B8F1000F05DD4E
:104BC00049464246584600F0B9FC8146099B002BF5
:104BD00005DD21461A46584600F0B0FC04460F9BFE
:104BE000002B53D02146484600F014FD00284DDA32
:104BF0007B1E0493494600230A22584600F0F2FA2D
:104C00000B9B8146002B00F06C81002329460A2271
:104C1000584600F0E7FA089B002B054661DC209B14
:104C2000022B3BDC5DE0149BC3F1360346E7079B98
:104C30005C1E0A9BA342BFBF0A9B0E9A0A94E31A0A
:104C4000B4BFD2181C1B079BBCBF0E920024002BC4
:104C5000B5BFA8EB0306079B0023464630E70A9C36
:104C60000B9D464635E70A9A5CE7002388E7029BDE
:104C700086E700230A9388E79FD0099A1C331A44D9
:104C800098441E44099298E70346F6E7079B049769
:104C9000002B20DC0893209B022B1EDD089B002BA1
:104CA0007FF4BCAE21460522584600F09BFA01462F
:104CB0000446484600F0AEFC00287FF7AFAE5646EB
:104CC000312306F8013B049B01330493AAE6079CB9
:104CD00004972546F3E7079B08930B9B002B00F0F6
:104CE0000481002E05DD29463246584600F026FC98
:104CF00005460A9B002B5AD06968584600F010FA06
:104D0000064628B9844B024640F2EF21FFF754BB18
:104D10002A690232920005F10C010C3000F0AAFF62
:104D200001223146584600F009FC0AF101030793BD
:104D3000089B53440B93029B03F001032F460A93F5
:104D40000546079B2146013B48460293FFF797FA29
:104D50003946089000F13008484600F05BFC2A46CE
:104D600009902146584600F071FCC268064602BB15
:104D70000146484600F04EFC0246314658460C9229
:104D800000F00EFA209B0C9A079E43EA02010A9B50
:104D9000194310D1B8F1390F29D0099B002B02DD3E
:104DA000089B03F13108029B83F800803BE628460C
:104DB000BBE70122E1E7099B002B04DB20990B43B1
:104DC0000A990B4320D1002AEDDD494601225846BD
:104DD00000F0B4FB2146814600F01CFC002803DCF7
:104DE000E1D118F0010FDED0B8F1390FD8D1029A15
:104DF0003923137033461E46013B16F8012C392A1D
:104E000052D001321A700EE6002A07DDB8F1390FD0
:104E1000EDD0029A08F10103137004E6079B079A8C
:104E200003F8018C0B9B934228D0494600230A22A9
:104E3000584600F0D7F9AF4281464FF000034FF0DB
:104E40000A023946584607D100F0CCF90746054614
:104E5000079B0133079374E700F0C4F9294607461E
:104E600000230A22584600F0BDF90546F0E7089BEA
:104E7000002BCCBF1E46012656440027494601227E
:104E8000584600F05BFB2146814600F0C3FB00283A
:104E9000B0DC02D118F0010FACD133461E4613F836
:104EA000012D302AFAD0BEE59A45A4D1049B0133E6
:104EB000049331238AF80030B5E5249BDFF85CA029
:104EC0001BB10AF10803249A1360504617B0BDE8DD
:104ED000F08F209B012B7FF73DAE0E9B0A930120A4
:104EE0005BE6089B002B7FF7D6AE56462146484628
:104EF000FFF7C5F900F1300806F8018B089BA6EB17
:104F00000A029342B3DD494600230A22584600F0C4
:104F100069F98146EAE700BF33640008B763000817
:104F200038B50546002941D051F8043C0C1F002B30
:104F3000B8BFE41800F0E8F81D4A136833B963609D
:104F400014602846BDE8384000F0E4B8A34208D910
:104F5000206821188B4201BF19685B68091821601D
:104F6000EDE71A465B680BB1A342FAD911685018F5
:104F7000A0420BD120680144501883421160E0D157
:104F800018685B68536008441060DAE702D90C23A4
:104F90002B60D6E7206821188B4204BF19685B6834
:104FA000636004BF091821605460CAE738BD00BFC0
:104FB000E0030020024B0146186800F025B800BF4E
:104FC0001800002070B50F4E0C463168054611B927
:104FD00000F040FE30602146284600F03BFE431CB6
:104FE00003D14FF0FF34204670BDC41C24F00304ED
:104FF000A042F8D0211A284600F02CFE0130F2D150
:10500000EFE700BFDC0300202DE9F843CD1C25F0BD
:10501000030508350C2D38BF0C25002D064601DB95
:10502000A94204D90C2333600020BDE8F883DFF8DF
:10503000D48000F069F8D8F800301C4644BB2946FB
:105040003046FFF7BFFF431C044658D1D8F8004054
:105050002746002F43D1002C4BD0236839463046D9
:1050600004EB030900F0F6FD814542D121686D1A79
:1050700029463046FFF7A6FF01303AD023682B447B
:105080002360D8F800305A6862BBC8F800700FE09F
:105090002268521B20D40B2A17D96119A34225601C
:1050A00018BF5960636808BFC8F8001062514B60B0
:1050B000304600F02FF804F10B00231D20F007000C
:1050C000C21A1CBF1B1AA350AFE76268A3420CBFF1
:1050D000C8F800205A60EBE723466468AEE73C4618
:1050E0007F68B6E71A465B68A342FBD10023536092
:1050F000DEE70C233360304600F00CF894E70560DF
:10510000D6E700BFE00300200148FFF7B6B800BFB4
:10511000D80300200148FFF7B1B800BFD803002032
:1051200070B5C66904460D4676B91020FFF742FFF8
:105130000246E06120B9184B18486B2100F0A8FD29
:10514000C0E901660660C660E669F36883B1E36999
:10515000DB6853F82500B8B9012101FA05F6721D84
:105160009200204600F0B2FD60B1C0E901560EE0A9
:1051700021220421204600F0A9FDE369F060DB68EC
:10518000002BE4D1002070BD026843F825200023E5
:10519000C0E90333F7E700BFC463000844640008B4
:1051A00070B5C66905460C4676B91020FFF702FFB8
:1051B0000246E86120B9094B09488F2100F068FDDB
:1051C000C0E901660660C6603CB1EB696268DB68F5
:1051D00053F82210216043F8224070BDC4630008D8
:1051E000446400082DE9F0410D6907460C461E464F
:1051F00001F1140C0020DCF8003099B202FB0161CF
:105200001E0C0B0C02FB063389B2013001EB03418B
:1052100085424CF8041B4FEA1346ECDC0EB3A3683E
:10522000AB4219DC616838460131FFF779FF8046EF
:1052300028B902460C4B0D48BA2100F029FD22691D
:10524000023204F10C0192000C3000F013FD2146F3
:105250003846FFF7A5FF444604EB850301355E6140
:1052600025612046BDE8F0813364000844640008ED
:10527000B0F5803F034636BF030400201020B3F191
:10528000807F3CBF1B020830B3F1805F3CBF1B0135
:105290000430B3F1804F3CBF9B000230002B05DB94
:1052A00013F0804F00F1010008BF20207047036811
:1052B000024613F007000BD0D90721D4980749BF45
:1052C0005B089B08012013605CBF136002207047DD
:1052D00099B209B91B0C1020D9B209B908301B0AC0
:1052E000190704BF1B090430990704BF9B0802304B
:1052F000D90703D45B0800F1010003D013607047A5
:10530000002070472020704710B50C460121FFF7A0
:1053100007FF024628B9054B054840F2451100F049
:10532000B7FC01234461036110BD00BF3364000872
:10533000446400082DE9F04F14460A6923699A4233
:10534000A8BF23460F46A4BF0C461F46D4F810A0A2
:10535000D7F81090A36861680AEB0906B34285B0DC
:10536000B8BF0131FFF7DCFE30B90246444B454877
:105370004FF4B17100F08CFC00F1140505EB8608C8
:105380002B460022434521D307F1140104F11402F6
:1053900002EB8A0201EB89030293131B153B23F0F6
:1053A0000303043304F11507BA4238BF0423019301
:1053B000029B03918B420CD8002E03DD58F8043D6C
:1053C000002B5AD0066105B0BDE8F08F43F8042BDE
:1053D000D8E7B1F800A0BAF1000F23D004F1140E01
:1053E000A9464FF0000C5EF8047BD9F800301FFA94
:1053F00087FB9BB20AFB0B336344D9F800C03F0C18
:105400004FEA1C4C0AFB07C707EB13479BB243EA62
:105410000743724549F8043B4FEA174CE3D8019B18
:1054200045F803C0039BB3F802900431B9F1000FB3
:1054300021D02B6804F1140CAE464FF0000ABCF8E2
:1054400000B0BEF8027009FB0B7757449BB243EAE9
:1054500007434EF8043B5CF8043B4FEA134ABEF89E
:10546000003009FB0A3303EB174362454FEA134A46
:10547000E5D8019FEB5104359AE7013E9CE700BF58
:1054800033640008446400082DE9F843154612F01F
:10549000030207460E4607D0254C013A002354F874
:1054A0002220FFF79FFE0646AD103DD0FC697CB977
:1054B0001020FFF77FFD0246F86128B91D4B1E48FA
:1054C00040F2B31100F0E4FBC0E901440460C460A1
:1054D000D7F81C80D8F808404CB940F27121384602
:1054E000FFF712FF0023C8F80800044603604FF0DE
:1054F0000009EB070AD5314622463846FFF71AFF66
:10550000314680463846FFF74BFE46466D100BD0BD
:10551000206838B9224621463846FFF70BFF206045
:10552000C0F800900446E4E73046BDE8F88300BFC9
:10553000A0640008C4630008446400082DE9F04733
:105540000C464968236903EB6218A3680746914635
:105550004FEA621A08F10106B3420BDB3846FFF747
:10556000DFFD054648B90246284B29484FF4EF7144
:1055700000F08EFB01315B00EEE7002300F1140127
:1055800000F110021846534533DB20692AEAEA7A13
:1055900004F1140319F01F0901EB8A0103EB800CDD
:1055A0002BD0C9F1200E8A460022186800FA09F0B3
:1055B00010434AF8040B53F8042B9C4522FA0EF2D0
:1055C000F3D8ACEB0403153B23F00303043304F1DD
:1055D0001500844538BF0423CA500AB108F10206F9
:1055E000013E38462E612146FFF7DAFD2846BDE828
:1055F000F08742F8040F0133C5E7043953F8042B50
:1056000041F8042F9C45F9D8EAE700BF336400084D
:10561000446400080A6903460069801A30B50ED157
:105620001433143103EB820401EB820154F8045D5E
:1056300051F8042D954203D005D24FF0FF3030BD14
:10564000A342F3D3FBE70120F9E700002DE9F74F70
:1056500089460646114648461446FFF7DBFF051EFD
:1056600012D129463046FFF75BFD024628B93E4B72
:1056700040F237213D4800F00BFB0123C0E904351F
:10568000104603B0BDE8F08FBCBF4B46A146304684
:10569000D9F80410BABF1C4601250025FFF740FDCC
:1056A000024618B9304B40F24521E3E7D9F81070B3
:1056B0002669C56009F1100309F1140504F1140EFF
:1056C00000F1140B05EB87080EEB86060193D94613
:1056D0004FF0000C019B5EF8040B53F804AF0193EC
:1056E00081B21FFA8AF35B1A000C6344C0EB1A40C4
:1056F00000EB23409BB243EA0043764549F8043B64
:105700004FEA204CE6D8331B153B23F00303153436
:105710000433A64238BF04231D445B441E462C4676
:1057200044450ED308F10301491B21F00301033D59
:10573000A84538BF00210B4453F8041D91B11761EF
:105740009EE754F8041BE646080C1CFA81FC7144E1
:1057500000EB2C4089B241EA004146F8041B4FEAB5
:10576000204CDDE7013FE7E73364000844640008AC
:105770002DE973430121089E90469946FFF7D0FC1E
:10578000044630B90246244B244840F20F3100F061
:105790007FFAC9F30A55C9F313030DB143F480131B
:1057A0000193B8F1000324D068460093FFF77FFD12
:1057B000DDE90012D8B1C0F1200302FA03F30B4374
:1057C000C24063610192019BA361002B0CBF0122C7
:1057D00002222261ADB1A5F2334505443560C0F126
:1057E0003500099B1860204602B0BDE870836161F6
:1057F000E9E701A8FFF75BFD019B6361203001220F
:10580000E7E704EB8203A0F2324030601869FFF74B
:105810002FFDC0EB4210E4E7336400084464000845
:105820002DE9F0478E681F46BE420B6882460C4643
:1058300090462DD8B1F90C2012F4906F26D06569EE
:10584000096905EB4505A3EB010905EBD5757B1C43
:105850004B446D109D4238BF1D46530527D5294640
:10586000FFF7D2FB064660B321694A4600F002FA10
:10587000A38923F4906343F08003A38126616561CB
:105880004E44A5EB09052660A5603E46BE4200D900
:105890003E4620683246414600F0C2F9A3689B1B91
:1058A000A3602368334423600020BDE8F0872A46C4
:1058B00000F032FA06460028E0D121695046FFF791
:1058C0002FFB0C23CAF80030A38943F04003A381C7
:1058D0004FF0FF30E9E700002DE9F04F98468B8943
:1058E0001B069DB007460D46144610D50B6973B9CB
:1058F0004021FFF789FB2860286130B90C233B6009
:105900004FF0FF301DB0BDE8F08F40236B610023E6
:10591000099320238DF82930CDF80C803023DFF84F
:105920009C818DF82A304FF0010923469A4613F8DE
:10593000012B0AB1252AF9D1BAEB040B0BD05B4637
:10594000224629463846FFF76BFF013000F0A7805A
:10595000099A5A4409929AF80030002B00F09F806F
:1059600000234FF0FF32CDE905230AF1010A049329
:1059700007938DF853301A935446052214F8011BEF
:105980004E48FBF785FB049AD8B9D00644BF2023C4
:105990008DF85330110744BF2B238DF853309AF8FC
:1059A00000302A2B15D0079A544600204FF00A0CDD
:1059B000214611F8013B303B092B4BD9B0B107927E
:1059C00014E0A0EB080309FA03F313430493A2467F
:1059D000D2E7039B191D1B680391002BBBBF5B42E1
:1059E00042F0020207930793B8BF049223782E2B4C
:1059F0000AD163782A2B32D1039B1A1D1B680392AC
:105A000043EAE37302340593DFF8B4A0217803225C
:105A10005046FBF73DFB38B1049BA0EB0A00402247
:105A2000824013430134049314F8011B25488DF878
:105A300028100622FBF72CFB002836D0224B1BBB7C
:105A4000039B073323F0070308330393099B334475
:105A500009936AE70CFB02320C460120A8E70023F9
:105A60000134059319464FF00A0C204610F8012B1B
:105A7000303A092A03D9002BC6D00591C4E70CFBA4
:105A8000012104460123F0E703AB00932A460F4BA4
:105A900004A93846FDF794FE421C0646D6D1AB89D0
:105AA0005B063FF52DAF09982CE703AB00932A4620
:105AB000064B04A93846FEF71DF9EDE7A06500087E
:105AC000A6650008AA650008C1370008215800082B
:105AD000B1F90C20F8B5160705460C4654D44B68AE
